:020000040800F2
:1000000000200020D10F0008D5020008D702000808
:1000100000000000000000000000000000000000E0
:10002000000000000000000000000000D9020008ED
:100030000000000000000000DB020008DD020008F4
:1000400021100008211000082110000821100008CC
:1000500021100008211000082110000821100008BC
:1000600021100008211000082110000821100008AC
:10007000211000082110000821100008211000089C
:1000800021100008211000080000000021100008C5
:10009000211000082110000821100008211000087C
:1000A000211000082110000821100008211000086C
:1000B00021100008000000002110000800000000CE
:1000C000002243088B4274D303098B425FD3030A97
:1000D0008B4244D3030B8B4228D3030C8B420DD3AA
:1000E000FF22090212BA030C8B4202D31212090238
:1000F00065D0030B8B4219D300E0090AC30B8B4276
:1001000001D3CB03C01A5241830B8B4201D38B0323
:10011000C01A5241430B8B4201D34B03C01A5241C8
:10012000030B8B4201D30B03C01A5241C30A8B420B
:1001300001D3CB02C01A5241830A8B4201D38B02F6
:10014000C01A5241430A8B4201D34B02C01A52419A
:10015000030A8B4201D30B02C01A5241CDD2C3090C
:100160008B4201D3CB01C01A524183098B4201D388
:100170008B01C01A524143098B4201D34B01C01A73
:10018000524103098B4201D30B01C01A5241C308EB
:100190008B4201D3CB00C01A524183088B4201D35A
:1001A0008B00C01A524143088B4201D34B00C01A46
:1001B0005241411A00D20146524110467047FFE7B2
:1001C00001B5002000F006F802BDC0460029F7D0B6
:1001D00076E770477047C0460448054B10B5834228
:1001E00003D0044B002B00D0984710BD0400002022
:1001F000040000200000000006480749091A891081
:10020000CB0F591810B5491003D0044B002B00D068
:10021000984710BD040000200400002000000000EA
:1002200010B5074C2378002B09D1FFF7D5FF054BFC
:10023000002B02D0044800E000BF0123237010BD52
:10024000040000200000000000110008054B10B55C
:10025000002B03D00449054800E000BFFFF7CCFFA6
:1002600010BDC0460000000008000020001100087A
:1002700010B588B01422002103A800F0F7FE134B3C
:10028000596980208002014359615A6902400192F4
:10029000019A5A698021C9020A435A615B690B407D
:1002A0000293029B0A4C00220821200000F0DCFD92
:1002B0000823039309330493002305930133069322
:1002C00003A9200000F090FC08B010BD001002400F
:1002D000000400487047FEE77047704710B500F013
:1002E00075FC10BD82B00A4B9969012211439961D6
:1002F00099690A400092009ADA69802149050A4307
:10030000DA61DB690B400193019B02B07047C04684
:100310000010024070B582B0041E27D02368002B65
:1003200001D0DB0628D02368DB073DD56368012BAD
:1003300001D9052B26D1C44B5A680C231340042B3A
:100340002AD0C14B5A680C231340082B20D0636875
:10035000012B56D0002B6BD1BB4B1A68BB490A400E
:100360001A601A68BA490A401A6050E089214900A7
:10037000B84800F0C3FED1E71421FF31B54800F0C2
:10038000BDFED0E71A21FF31B24800F0B7FED2E738
:10039000AD4B5B68DB03DAD5AB4B1B689B0303D526
:1003A0006368002B00D18FE223689B0700D486E0AE
:1003B000E368012B62D823691F2B65D8A24B5B68C9
:1003C0000C221A426AD0A04B5A680C231340082B07
:1003D00060D0E368002B00D196E09B4A13680121AE
:1003E0000B43136000F0FAFB0500974B1B689B075B
:1003F00000D580E000F0F2FB401B0228F5D9032075
:1004000065E2914A116880235B020B4313606368C5
:10041000002B25D000F0E2FB05008B4B1B689B03F3
:10042000C2D400F0DBFB401B6428F6D903204EE267
:10043000052B09D0844B1A6884490A401A601A684F
:1004400083490A401A60E2E77F4B19688022D20292
:100450000A431A601968802252020A431A60D6E7DA
:1004600000F0BCFB0500784B1B689B039CD500F09B
:10047000B5FB401B6428F6D9032028E24E21FF314A
:10048000744800F03BFE96E7A7214900714800F050
:1004900035FE93E76C4B5B68DB039AD46A4B1B68B1
:1004A0009B0704D5E368012B01D001200FE26649C8
:1004B0000B68F82293432269D20013430B60236830
:1004C0001B074DD5E369012B31D8E369002B34D0EC
:1004D0005D4A536A01210B43536200F07FFB050024
:1004E000594B5B6A9B073BD400F078FB401B02280A
:1004F000F6D90320EBE154490B68F82293432269B3
:10050000D20013430B60DAE74F4A136801218B4393
:10051000136000F063FB05004B4B1B689B07CED5B7
:1005200000F05CFB401B0228F6D90320CFE1C72175
:100530004900484800F0E2FDC7E7434A536A0121F9
:100540008B43536200F04AFB05003F4B5B6A9B07FD
:1005500006D500F043FB401B0228F6D90320B6E184
:1005600023685B0700D48DE0A368012B01D9052B1C
:1005700021D1354BDB69DB0023D4334AD16980209C
:1005800040050143D161D36903400193019B0125DB
:10059000314B1B68DB0516D5A368012B27D0002B38
:1005A0003CD1294B1A6A01218A431A621A6A033123
:1005B0008A431A6220E0DD214900264800F09EFDB2
:1005C000D7E70025E4E7244A116880235B000B434A
:1005D000136000F003FB06001F4B1B68DB05DBD438
:1005E00000F0FCFA801B6428F6D903206FE1164A5C
:1005F000136A01210B431362A368002B30D000F073
:10060000EDFA0600104B1B6A9B0738D400F0E6FA9F
:10061000801B124B9842F5D9032058E1052B09D0D5
:10062000094B1A6A01218A431A621A6A03318A4302
:100630001A62E1E7044B1A6A04210A431A621A6A31
:1006400003390A431A62D7E700100240FFFFFEFF9A
:10065000FFFFFBFF38110008007000408813000006
:1006600000F0BCFA06009C4B1B6A9B0707D500F004
:10067000B5FA801B994B9842F5D9032027E1012D4B
:1006800000D18AE02368DB061CD56369012B02D9FF
:10069000053300D087E0A3691F2B00D989E0636987
:1006A000012B00D18AE0053300D0A7E08A4A536BC2
:1006B00004218B435363536BF4318B43A169C9000D
:1006C0000B435363236A022B00D9AFE0236A002B4C
:1006D00000D1FBE0804A51680C220A40082A00D170
:1006E000F7E0022B00D0DAE0636A002B04D080220E
:1006F0005202934200D09FE0A36A002B37D08022A1
:10070000D202934233D08022120393422FD0C022D0
:10071000120393422BD080225203934227D0A0226F
:100720005203934223D0C022520393421FD0E022AF
:10073000520393421BD080229203934217D09022FF
:100740009203934213D0A022920393420FD0B0227F
:10075000920393420BD0C0229203934207D0D0223F
:100760009203934203D0E0229203934269D1E36A59
:100770000F2B6BD8584A136859490B40136000F08F
:100780002DFA0500544B1B689B0164D500F026FA36
:10079000401B0228F6D9032099E04F4AD3695149FA
:1007A0000B40D3616EE7802189004F4800F0A6FC22
:1007B00071E74E494C4800F0A1FC70E7464B5A6B7C
:1007C00004210A435A635A6B03390A435A6300F0FF
:1007D00005FA0500404B5B6B9B0706D400F0FEF961
:1007E000401B0228F6D9032071E03B494B6BF822ED
:1007F0009343A269D20013434B6363E7364B5A6BB2
:1008000004210A435A635A6B03398A435A6300F03E
:10081000E5F90500304B5B6B9B0700D452E700F015
:10082000DDF9401B0228F5D9032050E09D21890005
:100830002D4800F063FC49E72D492B4800F05EFC91
:100840005AE72C49284800F059FC90E72A492648E5
:1008500000F054FC8EE7204BDA6A0F218A43E16AEC
:100860000A43DA625A6825490A40A16A606A01436C
:100870000A435A601968802252040A431A6000F041
:10088000ADF90400144B1B689B0106D400F0A6F9D7
:10089000001B0228F6D9032019E0002017E00E4AB9
:1008A00013680F490B40136000F098F904000A4BDD
:1008B0001B689B0106D500F091F9001B0228F6D9B0
:1008C000032004E0002002E0012000E0002002B04C
:1008D00070BD0120FBE7C0460010024088130000F5
:1008E000FFFFFFFEFFFFFFEF3811000801020000CD
:1008F0007D0200007E0200007F020000FFFFC2FFB9
:1009000030B589B004AA174B180032C832C21100A2
:1009100002680A606A46103313CB13C21B68136067
:10092000114B5A680C231340082B19D1910C073333
:10093000194004A8445C0C49C96A0B406946C95C6B
:10094000D30308D463011B1B9801C01AC00004190B
:10095000200209B030BD0548FFF7B2FB6043F8E75D
:100960000248F6E7181100080010024000127A0051
:1009700070B504000D00002816D023685B0718D05E
:10098000012D1BD8714B1A6801231340AB421BD2B7
:100990006E490B68012293432B430B600B681A408E
:1009A000AA4211D0012070BD69496A4800F0A6FB37
:1009B000E3E76949674800F0A1FBE1E7B721890057
:1009C000644800F09BFBDDE723689B0719D5A3680B
:1009D000002B0FD0802B0DD0902B0BD0A02B09D04B
:1009E000B02B07D0C02B05D0D02B03D0E02B01D0EB
:1009F000F02B31D1594A5368F0218B43A1680B4346
:100A000053602368DB0759D56368022B29D86368D4
:100A1000012B2BD0022B2FD0504A1268920700D402
:100A200091E04E494A680320824313434B6000F033
:100A3000D5F806006368012B24D0022B30D0474B39
:100A40005B680C221A4239D000F0C8F8801B444B76
:100A50009842F4D90320A6E742493E4800F04EFBF5
:100A6000C8E741493B4800F049FBD0E73B4A1268E0
:100A70009203D6D4012096E7384A12689201D0D466
:100A8000012090E7354B5A680C231340042B15D0F6
:100A900000F0A4F8801B324B9842F3D9032082E780
:100AA0002E4B5A680C231340082B07D000F096F801
:100AB000801B2B4B9842F3D9032074E7234B1A6811
:100AC00001231340AB420BD920490B680122934309
:100AD0002B430B600B681A40AA4201D0012062E749
:100AE00023685B0719D5E368002B0FD08022D20062
:100AF00093420BD00132FF32934207D00132FF32D2
:100B0000934203D00132FF32934217D1134A536804
:100B100016490B40E1680B435360FFF7F1FE0F4BA2
:100B20005A6812090F231340114AD35CD840114B65
:100B30001860002000F028F8002034E70E4905482E
:100B400000F0DCFAE2E701202DE7C0460020024079
:100B5000DA02000038110008DB0200000010024039
:100B600088130000F3020000FA020000FFF8FFFF04
:100B7000E01100080000002063030000014B18682A
:100B80007047C0460000002010B50400FFF7F6FFD4
:100B9000FA218900FFF794FA00F0CEF90120002233
:100BA0002100404200F08CF9002010BD10B5064A2B
:100BB000136810210B4313600020FFF7E5FFFFF7D8
:100BC00091FB002010BDC04600200240024A13687D
:100BD000013313607047C04620000020014B1868A5
:100BE0007047C04620000020F0B5D6464F46464626
:100BF000C0B582B007000C009023DB0598420FD0EF
:100C00008B4B98420CD08B4B984209D08A4B984220
:100C100006D08A4B984203D0C121894800F06EFA71
:100C200023681A0401D01B0C03D0C221844800F0B1
:100C300065FA6368012B19D9112B17D0022B15D037
:100C4000122B13D07F4A934210D07F4A93420DD08B
:100C50007E4A93420AD07E4A934207D07D4A93420D
:100C600004D07D4A934201D0032B04D1A368022B08
:100C700006D8002547E0C321714800F03FFAF5E7A8
:100C8000C4216F4800F03AFAF3E7D4216C4800F031
:100C900035FA55E0E8216A4800F030FA7CE003219B
:100CA00000E0002191400A00024302339B006B499F
:100CB0005A506B4B1A68F343110019406068C00327
:100CC00001D532431100664A116052681100194083
:100CD0006068800301D532431100614A5160926817
:100CE000110019406068C00201D5324311005C4A0E
:100CF0009160D26813406168890201D533001343C3
:100D0000574AD360013526683200EA4000D189E0B5
:100D10000122AA4090461640F4D06368022B01D00D
:100D2000122B1CD19023DB059F4206D0404B9F42E3
:100D300003D0D321424800F0E1F92369072BA4D85E
:100D4000EB0808339B00D95907222A4092000F2054
:100D5000904081432069904002000A43DA513A688A
:100D60006B009A460323190050468140C9438946C7
:100D70000A4061680B40834013433B6063685A1E1E
:100D8000012A03D9112B01D0122B17D1E368012BB3
:100D900002D9032B00D07DE7BA684B461A40E368BE
:100DA00051468B401343BB607A6843469A4363685D
:100DB000190901230B40AB4013437B60FA684B4693
:100DC0001A40A36851468B401343FB606368DB0005
:100DD00098D5244A9169012319439161926913407E
:100DE0000193019BAB089A1C92001C4950580322A6
:100DF0002A4092000F21914088439021C9058F42DB
:100E000000D14EE70A498F4208D00A498F4207D0E5
:100E100009498F4200D142E7052143E7012141E71B
:100E200002213FE702B01CBC90469946A246F0BDA5
:100E30000004004800080048000C00480014004866
:100E40007011000800001110000021100000311086
:100E500000001210000022100000321000000140BB
:100E6000000401400010024070B506000C0015009F
:100E7000002905D0012D09D8002D0DD1B46270BD17
:100E8000D6214900054800F039F9F3E7AE21FF31DA
:100E9000024800F033F9EFE7B461F0E770110008A1
:100EA00070B505000C1E04D1E1214900034800F093
:100EB00025F96B695C406C6170BDC046701100081B
:100EC00070B504000D00032913D8002C16DBA1080F
:100ED0001648C03189000A5803231C40E400FC3343
:100EE0001E00A640B243AD012B40A34013430B505C
:100EF00070BD9B210E4800F001F9E6E7E4B20F2334
:100F00002340083B9B0806339B000A4A94466344EF
:100F1000586803210C40E400FF221100A1408843DF
:100F2000AD012A40A24002435A60E1E700E100E03F
:100F3000A811000800ED00E001380A4B98420FD8D4
:100F4000094A50600948036A1B021B0AC0210906AE
:100F50000B43036200239360073313600020704744
:100F60000120FCE7FFFFFF0010E000E000ED00E0E3
:100F7000114B1A6801210A431A605A680F4802404F
:100F80005A601A680E4802401A601A680D480240FA
:100F90001A605A680C4802405A60DA6A0F2082438D
:100FA000DA621A6B094802401A635A6B8A435A6321
:100FB00000229A607047C046001002400CB8FFF84B
:100FC000FFFFF6FEFFFFFBFFFFFFC0FFACFEFFFFD2
:100FD0000D4885460D480E490E4A002302E0D458BC
:100FE000C4500433C4188C42F9D30B4A0B4C002371
:100FF00001E013600432A242FBD3FFF7B9FF00F017
:1010000011F800F061F8FEE7002000200000002049
:1010100004000020F8110008040000202400002033
:10102000FEE7000070B500260C4D0D4C641BA410AB
:10103000A64209D1002600F063F80A4D0A4C641B51
:10104000A410A64205D170BDB300EB5898470136F5
:10105000EEE7B300EB5898470136F2E7F0110008CD
:10106000F0110008F0110008F41100080300121834
:10107000934200D1704719700133F9E710B590B071
:101080002C22002105A8FFF7F1FF1022002168465D
:10109000FFF7ECFF02240494012307930F33089316
:1010A0000C94A0239B030E9304A8FFF733F90723A6
:1010B0000093019400230293039301216846FFF7F4
:1010C00057FC10B010BD000010B5FFF76FFDFFF723
:1010D000D5FFFFF7CDF80024FFF780FDFA239B0032
:1010E000E3189842F8D9FFF779FD04000821024877
:1010F000FFF7D6FEF0E7C046000400487047000046
:10110000F8B5C046F8BC08BC9E467047F8B5C04666
:08111000F8BC08BC9E467047C4
:1011180002030405060708090A0B0C0D0E0F101030
:101128000102030405060708090A0B0C0D0E0F102F
:10113800447269766572732F53544D333246307852
:10114800785F48414C5F4472697665722F537263C9
:101158002F73746D3332663078785F68616C5F72B4
:1011680063632E6300000000447269766572732F12
:1011780053544D3332463078785F48414C5F44725F
:10118800697665722F5372632F73746D33326630CC
:1011980078785F68616C5F6770696F2E6300000024
:1011A800447269766572732F53544D3332463078E2
:1011B800785F48414C5F4472697665722F53726359
:1011C8002F73746D3332663078785F68616C5F6353
:1011D8006F727465782E6300000000000000000044
:0811E8000102030406070809D7
:0411F0004D020008A4
:0411F40021020008CC
:0411F80000127A0067
:0400000508000FD10F
:00000001FF
