:020000040800F2
:1000000000200020D10F0008D5020008D702000808
:1000100000000000000000000000000000000000E0
:10002000000000000000000000000000D9020008ED
:100030000000000000000000DB020008DD020008F4
:1000400021100008211000082110000821100008CC
:1000500021100008211000082110000821100008BC
:1000600021100008211000082110000821100008AC
:10007000211000082110000821100008211000089C
:1000800021100008211000080000000021100008C5
:10009000211000082110000821100008211000087C
:1000A000211000082110000821100008211000086C
:1000B00021100008000000002110000800000000CE
:1000C000002243088B4274D303098B425FD3030A97
:1000D0008B4244D3030B8B4228D3030C8B420DD3AA
:1000E000FF22090212BA030C8B4202D31212090238
:1000F00065D0030B8B4219D300E0090AC30B8B4276
:1001000001D3CB03C01A5241830B8B4201D38B0323
:10011000C01A5241430B8B4201D34B03C01A5241C8
:10012000030B8B4201D30B03C01A5241C30A8B420B
:1001300001D3CB02C01A5241830A8B4201D38B02F6
:10014000C01A5241430A8B4201D34B02C01A52419A
:10015000030A8B4201D30B02C01A5241CDD2C3090C
:100160008B4201D3CB01C01A524183098B4201D388
:100170008B01C01A524143098B4201D34B01C01A73
:10018000524103098B4201D30B01C01A5241C308EB
:100190008B4201D3CB00C01A524183088B4201D35A
:1001A0008B00C01A524143088B4201D34B00C01A46
:1001B0005241411A00D20146524110467047FFE7B2
:1001C00001B5002000F006F802BDC0460029F7D0B6
:1001D00076E770477047C0460448054B10B5834228
:1001E00003D0044B002B00D0984710BD0400002022
:1001F000040000200000000006480749091A891081
:10020000CB0F591810B5491003D0044B002B00D068
:10021000984710BD040000200400002000000000EA
:1002200010B5074C2378002B09D1FFF7D5FF054BFC
:10023000002B02D0044800E000BF0123237010BD52
:10024000040000200000000000110008054B10B55C
:10025000002B03D00449054800E000BFFFF7CCFFA6
:1002600010BDC0460000000008000020001100087A
:1002700010B588B01422002103A800F0F7FE134B3C
:10028000596980208002014359615A6902400192F4
:10029000019A5A698021C9020A435A615B690B407D
:1002A0000293029B0A4C00220821200000F0DCFD92
:1002B0000823039309330493002305930133069322
:1002C00003A9200000F090FC08B010BD001002400F
:1002D000000400487047FEE77047704710B500F013
:1002E00075FC10BD82B00A4B9969012211439961D6
:1002F00099690A400092009ADA69802149050A4307
:10030000DA61DB690B400193019B02B07047C04684
:100310000010024070B582B0041E27D02368002B65
:1003200001D0DB0628D02368DB073DD56368012BAD
:1003300001D9052B26D1C34B5A680C231340042B3B
:100340002AD0C04B5A680C231340082B20D0636876
:10035000012B55D0002B6AD1BA4B1A68BA490A4012
:100360001A601A68B9490A401A604FE089214900A9
:10037000B74800F0C3FED1E71421FF31B44800F0C4
:10038000BDFED0E71A21FF31B14800F0B7FED2E739
:10039000AC4B5B68DB03DAD5AA4B1B689B0303D528
:1003A0006368002B00D18DE223689B0700D484E0B2
:1003B000E368012B61D823691F2B64D8A14B5B68CC
:1003C0000C221A4269D09F4B5A680C231340082B09
:1003D0005FD0E368002B00D194E09A4A13680121B2
:1003E0000B43136000F0FAFB0500964B1B689B075C
:1003F0007FD400F0F3FB401B0228F6D9032066E20D
:10040000904A116880235B020B4313606368002BE2
:1004100025D000F0E3FB05008A4B1B689B03C3D487
:1004200000F0DCFB401B6428F6D903204FE2052BCB
:1004300009D0844B1A6884490A401A601A688349B3
:100440000A401A60E2E77F4B19688022D2020A4311
:100450001A601968802252020A431A60D6E700F037
:10046000BDFB0500774B1B689B039DD500F0B6FBD9
:10047000401B6428F6D9032029E24E21FF3174483D
:1004800000F03CFE97E7A7214900714800F036FED6
:1004900094E76C4B5B68DB039BD46A4B1B689B0740
:1004A00003D5E368012B00D00EE266490B68F82201
:1004B00093432269D20013430B6023681B074DD579
:1004C000E369012B31D8E369002B34D05D4A536ACC
:1004D00001210B43536200F081FB0500594B5B6A1D
:1004E0009B073BD400F07AFB401B0228F6D903207F
:1004F000EDE154490B68F82293432269D20013437B
:100500000B60DAE74F4A136801218B43136000F058
:1005100065FB05004B4B1B689B07CED500F05EFBCF
:10052000401B0228F6D90320D1E1C72149004848E1
:1005300000F0E4FDC7E7434A536A01218B4353624D
:1005400000F04CFB05003F4B5B6A9B0706D500F0B3
:1005500045FB401B0228F6D90320B8E123685B075E
:1005600000D48DE0A368012B01D9052B0FD1354BA9
:10057000DB69DB0011D4334AD16980204005014397
:10058000D161D36903400193019B012506E0DD2180
:1005900049002F4800F0B2FDE9E700252D4B1B680C
:1005A000DB050ED5A368012B1FD0002B34D1254BC2
:1005B0001A6A01218A431A621A6A03318A431A624B
:1005C00018E0244A116880235B000B43136000F09D
:1005D00005FB06001F4B1B68DB05E3D400F0FEFAA9
:1005E000801B6428F6D9032071E1164A136A0121A1
:1005F0000B431362A368002B30D000F0EFFA060023
:10060000104B1B6A9B0738D400F0E8FA801B124B92
:100610009842F5D903205AE1052B09D0094B1A6AF3
:1006200001218A431A621A6A03318A431A62E1E796
:10063000044B1A6A04210A431A621A6A03390A43EC
:100640001A62D7E700100240FFFFFEFFFFFFFBFF2B
:1006500038110008007000408813000000F0BEFA56
:1006600006009D4B1B6A9B0707D500F0B7FA801B5D
:100670009A4B9842F5D9032029E1012D00D18AE057
:100680002368DB061CD56369012B02D9053300D032
:1006900087E0A3691F2B00D989E06369012B00D192
:1006A0008AE0053300D0A7E08B4A536B04218B43CB
:1006B0005363536BF4318B43A169C9000B435363FC
:1006C000236A022B00D9AFE0236A002B00D1FDE0A2
:1006D000814A51680C220A40082A00D1F9E0022B15
:1006E00000D0DAE0636A002B04D0802252029342E9
:1006F00000D09FE0A36A002B37D08022D202934221
:1007000033D08022120393422FD0C022120393428F
:100710002BD080225203934227D0A022520393422F
:1007200023D0C022520393421FD0E02252039342AF
:100730001BD080229203934217D0902292039342BF
:1007400013D0A022920393420FD0B022920393427F
:100750000BD0C0229203934207D0D022920393423F
:1007600003D0E0229203934269D1E36A0F2B6BD846
:10077000594A13685A490B40136000F02FFA0500DC
:10078000554B1B689B0164D500F028FA401B0228DA
:10079000F6D903209BE0504AD36952490B40D361FC
:1007A0006EE780218900504800F0A8FC71E74F49AE
:1007B0004D4800F0A3FC70E7474B5A6B04210A43F5
:1007C0005A635A6B03390A435A6300F007FA05006B
:1007D000414B5B6B9B0706D400F000FA401B0228DC
:1007E000F6D9032073E03C494B6BF8229343A2698E
:1007F000D20013434B6363E7374B5A6B04210A4320
:100800005A635A6B03398A435A6300F0E7F90500CB
:10081000314B5B6B9B0700D452E700F0DFF9401BC4
:100820000228F5D9032052E09D2189002E4800F0CE
:1008300065FC49E72E492C4800F060FC5AE72D4939
:10084000294800F05BFC90E72B49274800F056FC54
:100850008EE7214BDA6A0F218A43E16A0A43DA62A2
:100860005A6826490A40A16A606A01430A435A60ED
:100870001968802252040A431A6000F0AFF904009C
:10088000154B1B689B0106D400F0A8F9001B022839
:10089000F6D903201BE0002019E00F4A1368104925
:1008A0000B40136000F09AF904000B4B1B689B018E
:1008B00006D500F093F9001B0228F6D9032006E0C4
:1008C000002004E0012002E0012000E0002002B04E
:1008D00070BD0120FBE7C0460010024088130000F5
:1008E000FFFFFFFEFFFFFFEF3811000801020000CD
:1008F0007D0200007E0200007F020000FFFFC2FFB9
:1009000030B589B004AA174B180032C832C21100A2
:1009100002680A606A46103313CB13C21B68136067
:10092000114B5A680C231340082B02D00F4809B012
:1009300030BD910C0733194004A8445C0A49C96AC8
:100940000B406946C95CD30304D50848FFF7B8FBE0
:100950006043ECE763011B1B9801C01AC000041937
:100960002002E4E7181100080010024000127A008B
:1009700070B504000D0000285DD023685B075FD0D0
:10098000012D62D8714B1A6801231340AB420AD281
:100990006E490B68012293432B430B600B681A408E
:1009A000AA4200D0CCE023689B0719D5A368002B8E
:1009B0000FD0802B0DD0902B0BD0A02B09D0B02BBB
:1009C00007D0C02B05D0D02B03D0E02B01D0F02BCB
:1009D00041D15F4A5368F0218B43A1680B435360B8
:1009E0002368DB0769D56368022B39D86368012B5C
:1009F0003BD0022B3FD0564A1268920700D4A1E0A8
:100A000053494A680320824313434B6000F0E6F8E1
:100A100006006368012B34D0022B40D04C4B5B683E
:100A20000C221A4249D000F0D9F8801B494B984259
:100A3000F4D903207EE04849484800F05FFB9CE77A
:100A40004749464800F05AFB9AE7B72189004348D6
:100A500000F054FB96E74349404800F04FFBB8E7ED
:100A600041493E4800F04AFBC0E7394A1268920308
:100A7000C6D401205EE0364A12689201C0D401203B
:100A800058E0334B5A680C231340042B15D000F068
:100A9000A5F8801B2F4B9842F3D903204AE02C4B3A
:100AA0005A680C231340082B07D000F097F8801BDE
:100AB000284B9842F3D903203CE0244B1A680123C9
:100AC0001340AB4209D921490B68012293432B43C0
:100AD0000B600B681A40AA4236D123685B0719D510
:100AE000E368002B0FD08022D20093420BD001325A
:100AF000FF32934207D00132FF32934203D00132DA
:100B0000FF32934217D1124A536818490B40E168EB
:100B10000B435360FFF7F4FE0D4B5A6812090F2385
:100B20001340134AD35CD840124B1860002000F0E9
:100B30002BF8002070BD1049084800F0DFFAE2E70A
:100B40000120F7E70120F5E70120F3E7002002404C
:100B50000010024088130000DA020000381100087B
:100B6000DB020000F3020000FA020000FFF8FFFFC2
:100B7000E01100080000002063030000014B18682A
:100B80007047C0460000002010B50400FFF7F6FFD4
:100B9000FA218900FFF794FA00F0CEF90120002233
:100BA0002100404200F08CF9002010BD10B5064A2B
:100BB000136810210B4313600020FFF7E5FFFFF7D8
:100BC00091FB002010BDC04600200240024A13687D
:100BD000013313607047C04620000020014B1868A5
:100BE0007047C04620000020F0B5D6464F46464626
:100BF000C0B582B007000C009023DB0598420FD0EF
:100C00008B4B98420CD08B4B984209D08A4B984220
:100C100006D08A4B984203D0C121894800F06EFA71
:100C200023681A0401D01B0C03D0C221844800F0B1
:100C300065FA6368012B19D9112B17D0022B15D037
:100C4000122B13D07F4A934210D07F4A93420DD08B
:100C50007E4A93420AD07E4A934207D07D4A93420D
:100C600004D07D4A934201D0032B04D1A368022B08
:100C700006D8002547E0C321714800F03FFAF5E7A8
:100C8000C4216F4800F03AFAF3E7D4216C4800F031
:100C900035FA55E0E8216A4800F030FA7CE003219B
:100CA00000E0002191400A00024302339B006B499F
:100CB0005A506B4B1A68F343110019406068C00327
:100CC00001D532431100664A116052681100194083
:100CD0006068800301D532431100614A5160926817
:100CE000110019406068C00201D5324311005C4A0E
:100CF0009160D26813406168890201D533001343C3
:100D0000574AD360013526683200EA4000D189E0B5
:100D10000122AA4090461640F4D06368022B01D00D
:100D2000122B1CD19023DB059F4206D0404B9F42E3
:100D300003D0D321424800F0E1F92369072BA4D85E
:100D4000EB0808339B00D95907222A4092000F2054
:100D5000904081432069904002000A43DA513A688A
:100D60006B009A460323190050468140C9438946C7
:100D70000A4061680B40834013433B6063685A1E1E
:100D8000012A03D9112B01D0122B17D1E368012BB3
:100D900002D9032B00D07DE7BA684B461A40E368BE
:100DA00051468B401343BB607A6843469A4363685D
:100DB000190901230B40AB4013437B60FA684B4693
:100DC0001A40A36851468B401343FB606368DB0005
:100DD00098D5244A9169012319439161926913407E
:100DE0000193019BAB089A1C92001C4950580322A6
:100DF0002A4092000F21914088439021C9058F42DB
:100E000000D14EE70A498F4208D00A498F4207D0E5
:100E100009498F4200D142E7052143E7012141E71B
:100E200002213FE702B01CBC90469946A246F0BDA5
:100E30000004004800080048000C00480014004866
:100E40007011000800001110000021100000311086
:100E500000001210000022100000321000000140BB
:100E6000000401400010024070B506000C0015009F
:100E7000002905D0012D09D8002D0DD0B46170BD19
:100E8000D6214900054800F039F9F3E7AE21FF31DA
:100E9000024800F033F9EFE7B462F0E770110008A0
:100EA00070B505000C1E03D06B695C406C6170BDB1
:100EB000E1214900014800F021F9F5E7701100082F
:100EC00070B504000D00032913D8002C16DBA3080D
:100ED0001648C0339B00195803221440E400FC322A
:100EE0001600A640B143AD011540A5400D431D506D
:100EF00070BD9B210E4800F001F9E6E7E4B20F2334
:100F00002340083B9B0806339B000A4A94466344EF
:100F1000586803210C40E400FF221100A1408843DF
:100F2000AD012A40A24002435A60E1E700E100E03F
:100F3000A811000800ED00E001380A4B98420FD8D4
:100F4000094A50600948036A1B021B0AC0210906AE
:100F50000B43036200239360073313600020704744
:100F60000120FCE7FFFFFF0010E000E000ED00E0E3
:100F7000114B1A6801210A431A605A680F4802404F
:100F80005A601A680E4802401A601A680D480240FA
:100F90001A605A680C4802405A60DA6A0F2082438D
:100FA000DA621A6B094802401A635A6B8A435A6321
:100FB00000229A607047C046001002400CB8FFF84B
:100FC000FFFFF6FEFFFFFBFFFFFFC0FFACFEFFFFD2
:100FD0000D4885460D480E490E4A002302E0D458BC
:100FE000C4500433C4188C42F9D30B4A0B4C002371
:100FF00001E013600432A242FBD3FFF7B9FF00F017
:1010000011F800F061F8FEE7002000200000002049
:1010100004000020F8110008040000202400002033
:10102000FEE7000070B500260C4D0D4C641BA410AB
:10103000A64209D1002600F063F80A4D0A4C641B51
:10104000A410A64205D170BDB300EB5898470136F5
:10105000EEE7B300EB5898470136F2E7F0110008CD
:10106000F0110008F0110008F41100080300121834
:10107000934200D1704719700133F9E710B590B071
:101080002C22002105A8FFF7F1FF1022002168465D
:10109000FFF7ECFF02240494012307930F33089316
:1010A0000C94A0239B030E9304A8FFF733F90723A6
:1010B0000093019400230293039301216846FFF7F4
:1010C00057FC10B010BD000010B5FFF76FFDFFF723
:1010D000D5FFFFF7CDF80024FFF780FDFA239B0032
:1010E000E3189842F8D9FFF779FD04000821024877
:1010F000FFF7D6FEF0E7C046000400487047000046
:10110000F8B5C046F8BC08BC9E467047F8B5C04666
:08111000F8BC08BC9E467047C4
:1011180002030405060708090A0B0C0D0E0F101030
:101128000102030405060708090A0B0C0D0E0F102F
:10113800447269766572732F53544D333246307852
:10114800785F48414C5F4472697665722F537263C9
:101158002F73746D3332663078785F68616C5F72B4
:1011680063632E6300000000447269766572732F12
:1011780053544D3332463078785F48414C5F44725F
:10118800697665722F5372632F73746D33326630CC
:1011980078785F68616C5F6770696F2E6300000024
:1011A800447269766572732F53544D3332463078E2
:1011B800785F48414C5F4472697665722F53726359
:1011C8002F73746D3332663078785F68616C5F6353
:1011D8006F727465782E6300000000000000000044
:0811E8000102030406070809D7
:0411F0004D020008A4
:0411F40021020008CC
:0411F80000127A0067
:0400000508000FD10F
:00000001FF
